:100000000C943B000C9458000C9458000C9458002D
:100010000C942D060C9458000C9458000C94580025
:100020000C9458000C9458000C9458000C945800F0
:100030000C9458000C9458000C9458000C945800E0
:100040000C9458000C9458000C9458000C945800D0
:100050000C9458000C9458000C9458000C945800C0
:100060000C946C000C9458001C018A019501A801A5
:10007000C5013301A00111241FBECFEFD4E0DEBFC4
:10008000CDBF11E0A0E0B1E0E8E0FDE002C00590E6
:100090000D92A430B107D9F721E0A4E0B1E001C08E
:1000A0001D92A031B207E1F70E94D6050C9482069A
:1000B0000C94000090930701809306017093050152
:1000C000609304010895F894880F8093BA0085EC3A
:1000D0008093BC00789408951F920F920FB60F92F0
:1000E00011242F933F934F935F936F937F938F933D
:1000F0009F93AF93BF93EF93FF938091B900887F55
:10010000803849F018F4882319F128C0883A71F032
:10011000883BA9F023C08091BB00E0910601F091DB
:100120000701099585EC8093BC001BC0E091040198
:10013000F0910501099585EC8093BC0012C0E09117
:100140000401F0910501099585EC8093BC0009C07C
:10015000ECEBF0E0108285EC808303C085EC8093AB
:10016000BC00FF91EF91BF91AF919F918F917F91D3
:100170006F915F914F913F912F910F900FBE0F9014
:100180001F90189580910E018093BB0008955B9895
:1001900028E030E02D98AC01022E02C0569547951C
:1001A0000A94E2F740FF02C02B9A01C02B9843E06B
:1001B0004A95F1F700002D9A43E04A95F1F70000C7
:1001C0002150310938F72D982B9A83E08A95F1F761
:1001D00000002D9A23E02A95F1F700008FE090E0CF
:1001E0002D989B01082E02C0369527950A94E2F7B8
:1001F00020FF02C02B9A01C02B9843E04A95F1F7EB
:1002000000002D9A23E02A95F1F70000019740F7AE
:100210002D9883E08A95F1F700005B9A0895E091AC
:100220000D014E2F50E04730510508F0C7C0FA01CC
:10023000EC5CFF4F0C947C06813F41F0823F51F013
:10024000803F61F480E480930E01089581E1809302
:100250000E01089581E180930E01089580930D01B0
:1002600010920F01089590910F01913099F028F0AC
:10027000923009F1933061F1089590E0982F88272A
:1002800090930B0180930A0180910F018F5F8093FF
:100290000F01089520910A0130910B01A901482B0B
:1002A000CA0190930B0180930A0180910F018F5F27
:1002B00080930F01089590E0982F8827909309016B
:1002C0008093080180910F018F5F80930F01089543
:1002D0002091080130910901A901482BCA0190938E
:1002E00009018093080160910801709109018091D2
:1002F0000A0190910B010E94C70010920D0110920B
:100300000B0110920A01109209011092080110923B
:100310000F01089587BD809301018F3F11F4289844
:1003200001C0289A10920D01089588BD80930001A4
:100330008F3F11F45D9801C05D9A10920D010895F0
:10034000811102C02F9801C02F9A10920D010895BB
:10035000823059F0833081F08130A1F461EE70E099
:100360008CEC90E00E94C7000DC064EE70E08CEC55
:1003700090E00E94C70006C064E270E08CEC90E060
:100380000E94C70010920D010895813069F028F095
:10039000823031F0833061F00EC010920C010BC03E
:1003A00082E080930C0107C081E080930C0103C0C0
:1003B00083E080930C0110920D01089580930D014C
:1003C00010920F01089560E070E082E090E00E94DA
:1003D000C70063E171E281E190E00E94C70060E044
:1003E00070E084E190E00E94C70060E872E28AE178
:1003F00090E00E94C7006DE27DE38BE190E00E94F7
:10040000C70064E170E780E290E00E94C70060E00E
:1004100070E088E090E00E94C70063E070E080E157
:1004200090E00E94C700089560E070E089E090E0ED
:100430000E94C70066E070E780E290E00E94C7007B
:1004400061E070E082E290E00E94C700089560E001
:1004500070E082E090E00E94C70060E070E088E019
:1004600090E00E94C70060E070E089E090E00E94A8
:10047000C70060E070E08AE090E00E94C70060E0A2
:1004800070E084E190E00E94C70060E872E28AE1D7
:1004900090E00E94C7006DE27DE38BE190E00E9456
:1004A000C70067E070E780E290E00E94C70061E06B
:1004B00070E082E290E00E94C70067E070E088E2AE
:1004C00090E00E94C7006FE578E089E290E00E942A
:1004D000C70063E071E48AE290E00E94C70068E12F
:1004E00075E08BE290E00E94C70061E070E080E37D
:1004F00090E00E94C70061E070E080E490E00E941C
:10050000C7006AE278E381E490E00E94C70068ECEB
:1005100073E582E490E00E94C70065E676E083E43C
:1005200090E00E94C70065E870E084E490E00E94DB
:10053000C70068E878E085E490E00E94C70060E0CA
:1005400078E486E490E00E94C70068E878E887E4F1
:1005500090E00E94C70067E171E088E490E00E94AB
:10056000C70060E070E080E790E00E94C7006AE0AA
:1005700077E480E890E00E94C70061E070E881E8DD
:1005800090E00E94C70065E170E082E890E00E9480
:10059000C70061E078E080EC90E00E94C70064EE64
:1005A00070E082EC90E00E94C70064E071E085ECAE
:1005B00090E00E94C7006AE972E087EC90E00E9438
:1005C000C70063E876E088EC90E00E94C70060E432
:1005D00076E089EC90E00E94C70064EE70E08CEC5D
:1005E00090E00E94C70064E170E08FEC90E00E9410
:1005F000C70060E071E086ED90E00E94C7006FE107
:1006000070E187ED90E00E94C70060E070E088ED47
:1006100090E00E94C70063E270E08BED90E00E94E2
:10062000C7006BE27CE38CED90E00E94C7006DE4B4
:100630007BE28DED90E00E94C7006EE57EE380EEE8
:1006400090E00E94C70069E470E083ED90E00E94B2
:10065000C70060E070E088ED90E00E94C70063E2B0
:1006600070E08BED90E00E94C7006BE27CE38CEDC4
:1006700090E00E94C7006DE47BE28DED90E00E9467
:10068000C70069E972E086EE90E00E94C70060E56D
:1006900073E087EE90E00E94C70064EF71E088EE9F
:1006A00090E00E94C70061EE70E08BEE90E00E9447
:1006B000C70069E170EB80E091E00E94C70069E14A
:1006C00070EB82E091E00E94C70060E078EC80E887
:1006D00091E00E94C7006FE17BEF81E891E00E940A
:1006E000C7006FE17BEF82E891E00E94C70062E102
:1006F0007BEF83E891E00E94C70062E179EF84E834
:1007000091E00E94C70063E079EF85E891E00E94E4
:10071000C70062E078EF86E891E00E94C7006FE0D2
:1007200073EF87E891E00E94C7006FE073EF88E8FD
:1007300091E00E94C7006FE073EF89E891E00E94AA
:10074000C7006AE073EF8AE891E00E94C70061E0A9
:1007500071EF8BE891E00E94C7006AE070EF8CE8CF
:1007600091E00E94C7006BE472EF8DE891E00E9477
:10077000C70061E072EF8EE891E00E94C70066E278
:1007800072EF8FE891E00E94C70061E270EF80E9AC
:1007900091E00E94C70061E070EF81E991E00E9462
:1007A000C70062E074EF82E991E00E94C70067E051
:1007B00070EF83E991E00E94C7006FE072EF84E977
:1007C00091E00E94C7006FE072EF85E991E00E941E
:1007D000C70062E072EF86E991E00E94C70066E020
:1007E00070EF87E991E00E94C70068E07CEE88E93D
:1007F00091E00E94C70061E078EC89E991E00E94F5
:10080000C70060E078EC8AE991E00E94C70060E0F0
:1008100078EC83EA91E00E94C70062E07CEC84EA15
:1008200091E00E94C70061E07CEC85EA91E00E94C3
:10083000C70062E07CEC86EA91E00E94C70061E0BC
:100840007CEC87EA91E00E94C70062E07CEC88EAD9
:1008500091E00E94C70065E078EC89EA91E00E948F
:10086000C70060E078EC8AEA91E00E94C70060E38C
:1008700070E08BEA91E00E94C7006BE770E28CEABF
:1008800091E00E94C70061E770E28DEA91E00E946A
:10089000C70061E770E08EEA91E00E94C7006FE751
:1008A00070E18FEA91E00E94C70062E770E180EB9F
:1008B00091E00E94C70064E770E181EB91E00E9443
:1008C000C70061E770E082EB91E00E94C70061E33E
:1008D00070E083EB91E00E94C7006BEB71E284EB68
:1008E00091E00E94C70061EB70E285EB91E00E940D
:1008F000C70061EB70E086EB91E00E94C7006FEBF0
:1009000070E187EB91E00E94C70062EB70E188EB39
:1009100091E00E94C70064EB70E189EB91E00E94D6
:10092000C70061EB70E08AEB91E00E94C70060E3D2
:1009300070E08BEB91E00E94C70060E370E08CEB0D
:1009400091E00E94C7006BE771E28DEB91E00E949D
:10095000C70061E770E28EEB91E00E94C70061E79B
:1009600070E08FEB91E00E94C7006FE770E180ECD0
:1009700091E00E94C70062E770E181EC91E00E9483
:10098000C70064E770E182EC91E00E94C70061E774
:1009900070E083EC91E00E94C70061E370E084ECBA
:1009A00091E00E94C7006BEB71E285EC91E00E9440
:1009B000C70061EB70E286EC91E00E94C70061EB3A
:1009C00070E087EC91E00E94C7006FEB70E188EC6B
:1009D00091E00E94C70062EB70E189EC91E00E9417
:1009E000C70064EB70E18AEC91E00E94C70061EB04
:1009F00070E08BEC91E00E94C70060E370E08CEC4B
:100A000091E00E94C70060E370E08DEC91E00E94ED
:100A1000C7006BE771E28EEC91E00E94C70061E7CE
:100A200070E28FEC91E00E94C70061E770E080ED1A
:100A300091E00E94C70061E770E181ED91E00E94C2
:100A4000C70061E770E082ED91E00E94C70061E3BA
:100A500070E083ED91E00E94C7006BEB71E284EDE2
:100A600091E00E94C70061EB70E285ED91E00E9489
:100A7000C70061EB70E086ED91E00E94C70063EB78
:100A800070E187ED91E00E94C70061EB70E188EDB5
:100A900091E00E94C70061EB70E089ED91E00E9457
:100AA000C7006FE370E08AED91E00E94C70062E347
:100AB00070E08BED91E00E94C70060E370E08CED88
:100AC00091E00E94C700089560E070E08AE090E045
:100AD0000E94C70067E070E780E290E00E94C700D4
:100AE00067E070E088E290E00E94C70063E171E493
:100AF0008AE290E00E94C70061E070E080E390E04D
:100B00000E94C70061E070E080E490E00E94C700AE
:100B100067E271E088E490E00E94C70060E070E066
:100B200080E790E00E94C700089562EC70E08FE0DB
:100B300091E00E945A0080E10E946300089580FDC8
:100B4000289A81FD5D9A089580FD289881FD5D9821
:100B500008950E94E30183EC99E00197F1F700C04A
:100B600000000E9414020E9427020E94640508955A
:100B700084B1886284B9539A24985B9A2D98279AF5
:100B80002F98209A85B185B9559A8BB18BB93B9A2C
:100B9000439839980895E8E6F0E080818260808388
:100BA000ECE6F0E0808182608083089583E08093AA
:100BB0000C010E94B8050E9495050E94CB0578940F
:100BC000439A89EF90E00197F1F700C000000E947E
:100BD000A90581E00E949F0583E00E94A4052F9A49
:100BE00080910C018130E1F70E949F059FE926E882
:100BF00081E0915020408040E1F700C0000081E09A
:100C00000E94A40582E00E949F059FE926E881E0FA
:100C1000915020408040E1F700C0000082E00E9437
:100C2000A40583EC99E00197F1F700C0000083E090
:100C30000E949F059FE926E881E091502040804076
:100C4000E1F700C0000083E00E94A40583E294EF76
:100C50000197F1F700C00000C3CF1F920F920FB6AB
:100C60000F9211248F9380910C01813009F43EC0C2
:100C7000319B34C080910C01823099F48091020143
:100C8000813041F48091000181112D9A82E080939E
:100C9000020107C0809101018111289A81E08093AF
:100CA000020180910C0181110AC0809101018F3FE6
:100CB00009F0289A809100018F3F09F05D9A809198
:100CC0000C01833099F4809101018F3F09F0289A3B
:100CD000809100018F3F51F05D9A08C080910C0116
:100CE000811102C028985D9880910C018F910F901E
:100CF0000FBE0F901F901895EE0FFF1F0590F491F7
:080D0000E02D0994F894FFCFE7
:040D0800FFFF0100E8
:00000001FF
